{
  "contractName": "DeadManSwitch",
  "abi": [
    {
      "inputs": [
        {
          "internalType": "address",
          "name": "_nextOwner",
          "type": "address"
        }
      ],
      "payable": false,
      "stateMutability": "nonpayable",
      "type": "constructor"
    },
    {
      "anonymous": false,
      "inputs": [
        {
          "indexed": false,
          "internalType": "uint256",
          "name": "amount",
          "type": "uint256"
        }
      ],
      "name": "SuccessfulTransfer",
      "type": "event"
    },
    {
      "payable": true,
      "stateMutability": "payable",
      "type": "fallback"
    },
    {
      "constant": false,
      "inputs": [],
      "name": "isAlive",
      "outputs": [],
      "payable": false,
      "stateMutability": "nonpayable",
      "type": "function"
    },
    {
      "constant": true,
      "inputs": [],
      "name": "getOriginalBalance",
      "outputs": [
        {
          "internalType": "uint256",
          "name": "",
          "type": "uint256"
        }
      ],
      "payable": false,
      "stateMutability": "view",
      "type": "function"
    },
    {
      "constant": true,
      "inputs": [],
      "name": "getNewBalance",
      "outputs": [
        {
          "internalType": "uint256",
          "name": "",
          "type": "uint256"
        }
      ],
      "payable": false,
      "stateMutability": "view",
      "type": "function"
    },
    {
      "constant": false,
      "inputs": [],
      "name": "transferFunds",
      "outputs": [],
      "payable": false,
      "stateMutability": "nonpayable",
      "type": "function"
    }
  ],
  "bytecode": "0x608060405234801561001057600080fd5b506040516109083803806109088339818101604052602081101561003357600080fd5b81019080805190602001909291905050503373ffffffffffffffffffffffffffffffffffffffff168173ffffffffffffffffffffffffffffffffffffffff1614156100e6576040517f08c379a000000000000000000000000000000000000000000000000000000000815260040180806020018281038252600d8152602001807f546f6f20736d617274207850210000000000000000000000000000000000000081525060200191505060405180910390fd5b336000806101000a81548173ffffffffffffffffffffffffffffffffffffffff021916908373ffffffffffffffffffffffffffffffffffffffff16021790555080600160006101000a81548173ffffffffffffffffffffffffffffffffffffffff021916908373ffffffffffffffffffffffffffffffffffffffff160217905550436002819055506000809054906101000a900473ffffffffffffffffffffffffffffffffffffffff1673ffffffffffffffffffffffffffffffffffffffff16316003819055506001600460006101000a81548160ff02191690831515021790555050610730806101d86000396000f3fe60806040526004361061003f5760003560e01c80631d834d26146100415780633c68eb811461006c5780634136aa3514610083578063d4e6f94f1461009a575b005b34801561004d57600080fd5b506100566100c5565b6040518082815260200191505060405180910390f35b34801561007857600080fd5b50610081610175565b005b34801561008f57600080fd5b506100986103e0565b005b3480156100a657600080fd5b506100af6104a9565b6040518082815260200191505060405180910390f35b6000600160009054906101000a900473ffffffffffffffffffffffffffffffffffffffff1673ffffffffffffffffffffffffffffffffffffffff163373ffffffffffffffffffffffffffffffffffffffff161461016d576040517f08c379a000000000000000000000000000000000000000000000000000000000815260040180806020018281038252603681526020018061069b6036913960400191505060405180910390fd5b600354905090565b600160009054906101000a900473ffffffffffffffffffffffffffffffffffffffff1673ffffffffffffffffffffffffffffffffffffffff163373ffffffffffffffffffffffffffffffffffffffff161461021b576040517f08c379a000000000000000000000000000000000000000000000000000000000815260040180806020018281038252603681526020018061069b6036913960400191505060405180910390fd5b6000439050600a6102376002548361059090919063ffffffff16565b116102aa576040517f08c379a00000000000000000000000000000000000000000000000000000000081526004018080602001828103825260198152602001807f546865206f776e6572206973207374696c6c20616c697665210000000000000081525060200191505060405180910390fd5b6000600460006101000a81548160ff02191690831515021790555060003373ffffffffffffffffffffffffffffffffffffffff1660035460405180600001905060006040518083038185875af1925050503d8060008114610327576040519150601f19603f3d011682016040523d82523d6000602084013e61032c565b606091505b50509050806103a3576040517f08c379a00000000000000000000000000000000000000000000000000000000081526004018080602001828103825260198152602001807f5472616e73666572206f66206d6f6e6579206661696c65642e0000000000000081525060200191505060405180910390fd5b7fb814a3aed56cb497fc5e851833d0eb04685d9ca2291f76a3df5dc4920b4e182a6003546040518082815260200191505060405180910390a15050565b6000809054906101000a900473ffffffffffffffffffffffffffffffffffffffff1673ffffffffffffffffffffffffffffffffffffffff163373ffffffffffffffffffffffffffffffffffffffff1614610485576040517f08c379a000000000000000000000000000000000000000000000000000000000815260040180806020018281038252602b8152602001806106d1602b913960400191505060405180910390fd5b436002819055506001600460006101000a81548160ff021916908315150217905550565b6000600160009054906101000a900473ffffffffffffffffffffffffffffffffffffffff1673ffffffffffffffffffffffffffffffffffffffff163373ffffffffffffffffffffffffffffffffffffffff1614610551576040517f08c379a000000000000000000000000000000000000000000000000000000000815260040180806020018281038252603681526020018061069b6036913960400191505060405180910390fd5b600160009054906101000a900473ffffffffffffffffffffffffffffffffffffffff1673ffffffffffffffffffffffffffffffffffffffff1631905090565b60006105d283836040518060400160405280601e81526020017f536166654d6174683a207375627472616374696f6e206f766572666c6f7700008152506105da565b905092915050565b6000838311158290610687576040517f08c379a00000000000000000000000000000000000000000000000000000000081526004018080602001828103825283818151815260200191508051906020019080838360005b8381101561064c578082015181840152602081019050610631565b50505050905090810190601f1680156106795780820380516001836020036101000a031916815260200191505b509250505060405180910390fd5b506000838503905080915050939250505056fe596f75206e65656420746f2062652074686520667574757265206f776e657220746f2063616c6c20746869732066756e6374696f6e21596f75206e65656420746f206265206f776e657220746f2063616c6c20746869732066756e6374696f6e21a265627a7a72315820509bcc427dff9c33a3fdaf29dbdfdfcec115b2ac3f7bc5c6acd5317c03b9fc0964736f6c63430005100032",
  "source": "pragma solidity ^0.5.0;\r\n\r\nimport './SafeMath.sol';\r\n\r\ncontract DeadManSwitch {\r\n\r\n    using SafeMath for uint;\r\n\r\n    address owner;\r\n    address nextOwner;\r\n    uint lastBlock;\r\n    uint ownerBalance;\r\n    bool isOwnerAlive;\r\n\r\n    event SuccessfulTransfer(uint amount);\r\n\r\n    constructor (address _nextOwner) public {\r\n        require(_nextOwner != msg.sender, \"Too smart xP!\");\r\n        owner = msg.sender;\r\n        nextOwner = _nextOwner;\r\n        lastBlock = block.number;\r\n        ownerBalance = owner.balance;\r\n        isOwnerAlive = true;\r\n    }\r\n\r\n    modifier onlyOwner () {\r\n        require(msg.sender == owner, \"You need to be owner to call this function!\");\r\n        _;\r\n    }\r\n\r\n    modifier onlyFutureOwner () {\r\n        require(msg.sender == nextOwner, \"You need to be the future owner to call this function!\");\r\n        _;\r\n    }\r\n\r\n    function () external payable {\r\n    }\r\n\r\n    function isAlive() public onlyOwner {\r\n        lastBlock = block.number;\r\n        isOwnerAlive = true;\r\n    }\r\n\r\n    function getOriginalBalance() public view onlyFutureOwner returns (uint) {\r\n        return ownerBalance;\r\n    }\r\n\r\n    function getNewBalance() public view onlyFutureOwner returns (uint) {\r\n        return nextOwner.balance;\r\n    }\r\n\r\n    function transferFunds() public onlyFutureOwner {\r\n        uint currentBlock = block.number;\r\n        require(currentBlock.sub(lastBlock) > 10, \"The owner is still alive!\");\r\n        isOwnerAlive = false;\r\n        (bool transferred, ) = msg.sender.call.value(ownerBalance)(\"\");\r\n        require(transferred, \"Transfer of money failed.\");\r\n        emit SuccessfulTransfer(ownerBalance);\r\n    }\r\n}",
  "sourcePath": "C:\\Users\\Shubham Bhardwaj\\Desktop\\Ethereum India Fellowship\\Week 2\\Task 4\\dead-man-switch-eth\\contracts\\DeadManSwitch.sol",
  "compiler": {
    "name": "solc",
    "version": "0.5.16+commit.9c3226ce.Emscripten.clang"
  },
  "schemaVersion": "3.2.0",
  "updatedAt": "2020-06-19T21:03:12.752Z",
  "networkType": "ethereum",
  "devdoc": {
    "methods": {}
  },
  "userdoc": {
    "methods": {}
  }
}