{
  "contractName": "DeadManSwitch",
  "abi": [
    {
      "inputs": [
        {
          "internalType": "address",
          "name": "_nextOwner",
          "type": "address"
        }
      ],
      "payable": false,
      "stateMutability": "nonpayable",
      "type": "constructor"
    },
    {
      "anonymous": false,
      "inputs": [],
      "name": "OwnerDead",
      "type": "event"
    },
    {
      "constant": true,
      "inputs": [],
      "name": "isOwnerAlive",
      "outputs": [
        {
          "internalType": "bool",
          "name": "",
          "type": "bool"
        }
      ],
      "payable": false,
      "stateMutability": "view",
      "type": "function"
    },
    {
      "constant": true,
      "inputs": [],
      "name": "lastBlock",
      "outputs": [
        {
          "internalType": "uint256",
          "name": "",
          "type": "uint256"
        }
      ],
      "payable": false,
      "stateMutability": "view",
      "type": "function"
    },
    {
      "constant": true,
      "inputs": [],
      "name": "nextOwner",
      "outputs": [
        {
          "internalType": "address",
          "name": "",
          "type": "address"
        }
      ],
      "payable": false,
      "stateMutability": "view",
      "type": "function"
    },
    {
      "constant": true,
      "inputs": [],
      "name": "owner",
      "outputs": [
        {
          "internalType": "address",
          "name": "",
          "type": "address"
        }
      ],
      "payable": false,
      "stateMutability": "view",
      "type": "function"
    },
    {
      "constant": false,
      "inputs": [],
      "name": "isAlive",
      "outputs": [],
      "payable": false,
      "stateMutability": "nonpayable",
      "type": "function"
    },
    {
      "constant": true,
      "inputs": [],
      "name": "getOwnerBalance",
      "outputs": [
        {
          "internalType": "uint256",
          "name": "",
          "type": "uint256"
        }
      ],
      "payable": false,
      "stateMutability": "view",
      "type": "function"
    },
    {
      "constant": false,
      "inputs": [],
      "name": "isOwnerDead",
      "outputs": [
        {
          "internalType": "uint256",
          "name": "",
          "type": "uint256"
        }
      ],
      "payable": false,
      "stateMutability": "nonpayable",
      "type": "function"
    }
  ],
  "bytecode": "0x608060405234801561001057600080fd5b506040516108963803806108968339818101604052602081101561003357600080fd5b81019080805190602001909291905050503373ffffffffffffffffffffffffffffffffffffffff168173ffffffffffffffffffffffffffffffffffffffff1614156100c9576040517f08c379a000000000000000000000000000000000000000000000000000000000815260040180806020018281038252602e815260200180610868602e913960400191505060405180910390fd5b336000806101000a81548173ffffffffffffffffffffffffffffffffffffffff021916908373ffffffffffffffffffffffffffffffffffffffff16021790555080600160006101000a81548173ffffffffffffffffffffffffffffffffffffffff021916908373ffffffffffffffffffffffffffffffffffffffff160217905550436002819055506001600360006101000a81548160ff021916908315150217905550506106ec8061017c6000396000f3fe608060405234801561001057600080fd5b506004361061007d5760003560e01c8063791407c81161005b578063791407c8146100f4578063806b984f146101165780638da5cb5b14610134578063ad99068d1461017e5761007d565b80634136aa3514610082578063590791f21461008c57806369f3331d146100aa575b600080fd5b61008a61019c565b005b6100946102ca565b6040518082815260200191505060405180910390f35b6100b26103b0565b604051808273ffffffffffffffffffffffffffffffffffffffff1673ffffffffffffffffffffffffffffffffffffffff16815260200191505060405180910390f35b6100fc6103d6565b604051808215151515815260200191505060405180910390f35b61011e6103e9565b6040518082815260200191505060405180910390f35b61013c6103ef565b604051808273ffffffffffffffffffffffffffffffffffffffff1673ffffffffffffffffffffffffffffffffffffffff16815260200191505060405180910390f35b610186610414565b6040518082815260200191505060405180910390f35b6000809054906101000a900473ffffffffffffffffffffffffffffffffffffffff1673ffffffffffffffffffffffffffffffffffffffff163373ffffffffffffffffffffffffffffffffffffffff1614610241576040517f08c379a000000000000000000000000000000000000000000000000000000000815260040180806020018281038252602b81526020018061068d602b913960400191505060405180910390fd5b600360009054906101000a900460ff166102a6576040517f08c379a00000000000000000000000000000000000000000000000000000000081526004018080602001828103825260278152602001806106666027913960400191505060405180910390fd5b436002819055506001600360006101000a81548160ff021916908315150217905550565b6000600160009054906101000a900473ffffffffffffffffffffffffffffffffffffffff1673ffffffffffffffffffffffffffffffffffffffff163373ffffffffffffffffffffffffffffffffffffffff1614610372576040517f08c379a00000000000000000000000000000000000000000000000000000000081526004018080602001828103825260368152602001806106306036913960400191505060405180910390fd5b6000809054906101000a900473ffffffffffffffffffffffffffffffffffffffff1673ffffffffffffffffffffffffffffffffffffffff1631905090565b600160009054906101000a900473ffffffffffffffffffffffffffffffffffffffff1681565b600360009054906101000a900460ff1681565b60025481565b6000809054906101000a900473ffffffffffffffffffffffffffffffffffffffff1681565b6000600a61042d6002544361052590919063ffffffff16565b116104a0576040517f08c379a00000000000000000000000000000000000000000000000000000000081526004018080602001828103825260198152602001807f546865206f776e6572206973207374696c6c20616c697665210000000000000081525060200191505060405180910390fd5b6000600360006101000a81548160ff0219169083151502179055507f1f6482fcd0e177d5c73f68840b1c04fdaf813f07f326e3cb0cf62f5610e7438560405160405180910390a16000809054906101000a900473ffffffffffffffffffffffffffffffffffffffff1673ffffffffffffffffffffffffffffffffffffffff1631905090565b600061056783836040518060400160405280601e81526020017f536166654d6174683a207375627472616374696f6e206f766572666c6f77000081525061056f565b905092915050565b600083831115829061061c576040517f08c379a00000000000000000000000000000000000000000000000000000000081526004018080602001828103825283818151815260200191508051906020019080838360005b838110156105e15780820151818401526020810190506105c6565b50505050905090810190601f16801561060e5780820380516001836020036101000a031916815260200191505b509250505060405180910390fd5b506000838503905080915050939250505056fe596f75206e65656420746f2062652074686520667574757265206f776e657220746f2063616c6c20746869732066756e6374696f6e2143616e277420636f6d65206261636b2066726f6d2074686520646561642c2063616e20796f753f596f75206e65656420746f206265206f776e657220746f2063616c6c20746869732066756e6374696f6e21a265627a7a72315820001fc14b4af466c2cd1eec94df0763a892c6515a8ea8aaefe4b1545f6129317964736f6c63430005100032576861742077696c6c20796f7520646f2077697468206d6f6e657920616674657220796f7527726520646561643f",
  "source": "pragma solidity ^0.5.0;\r\n\r\nimport './SafeMath.sol';\r\n\r\ncontract DeadManSwitch {\r\n\r\n    using SafeMath for uint;\r\n\r\n    address public owner;\r\n    address public nextOwner;\r\n    uint public lastBlock;\r\n    bool public isOwnerAlive;\r\n\r\n    // event SuccessfulTransfer(uint amount);\r\n    event OwnerDead();\r\n\r\n    constructor (address _nextOwner) public {\r\n        require(_nextOwner != msg.sender, \"What will you do with money after you're dead?\");\r\n        owner = msg.sender;\r\n        nextOwner = _nextOwner;\r\n        lastBlock = block.number;\r\n        isOwnerAlive = true;\r\n    }\r\n\r\n    modifier onlyOwner () {\r\n        require(msg.sender == owner, \"You need to be owner to call this function!\");\r\n        _;\r\n    }\r\n\r\n    modifier onlyFutureOwner () {\r\n        require(msg.sender == nextOwner, \"You need to be the future owner to call this function!\");\r\n        _;\r\n    }\r\n\r\n    // function () external payable {\r\n    // }\r\n\r\n    function isAlive() public onlyOwner {\r\n        require(isOwnerAlive, \"Can't come back from the dead, can you?\");\r\n        lastBlock = block.number;\r\n        isOwnerAlive = true;\r\n    }\r\n\r\n    function getOwnerBalance() public view onlyFutureOwner returns (uint) {\r\n        return owner.balance;\r\n    }\r\n\r\n    // function getNewBalance() public view onlyFutureOwner returns (uint) {\r\n    //     return nextOwner.balance;\r\n    // }\r\n\r\n    // function transferFunds() public onlyFutureOwner returns (uint) {\r\n    //     uint currentBlock = block.number;\r\n    //     require(currentBlock.sub(lastBlock) > 10, \"The owner is still alive!\");\r\n    //     isOwnerAlive = false;\r\n    //     (bool transferred, ) = msg.sender.call.value(owner.balance)(\"\");\r\n    //     require(transferred, \"Transfer of money failed.\");\r\n    //     emit SuccessfulTransfer(owner.balance);\r\n    //     return owner.balance;\r\n    // }\r\n\r\n    function isOwnerDead() public returns (uint) {\r\n        require(block.number.sub(lastBlock) > 10, \"The owner is still alive!\");\r\n        isOwnerAlive = false;\r\n        emit OwnerDead();\r\n        return owner.balance;\r\n    }\r\n}",
  "sourcePath": "C:\\Users\\Shubham Bhardwaj\\Desktop\\Ethereum India Fellowship\\Week 2\\Task 4\\dead-man-switch-eth\\contracts\\DeadManSwitch.sol",
  "compiler": {
    "name": "solc",
    "version": "0.5.16+commit.9c3226ce.Emscripten.clang"
  },
  "schemaVersion": "3.2.0",
  "updatedAt": "2020-06-20T11:08:17.937Z",
  "networkType": "ethereum",
  "devdoc": {
    "methods": {}
  },
  "userdoc": {
    "methods": {}
  }
}